:020000040800F2
:10000000C00C00209D5B0008B1180008B318000860
:10001000B7180008BB180008BF180008000000004F
:10002000000000000000000000000000C3180008ED
:10003000C518000800000000C7180008C91800080B
:10004000B75B0008B75B0008B75B0008B75B000848
:10005000B75B0008B75B0008B75B0008B75B000838
:10006000B75B0008B75B0008B75B0008B75B000828
:10007000B75B0008B75B0008B75B0008B75B000818
:10008000B75B0008B75B0008B75B0008B75B000808
:10009000B75B0008B75B0008B75B0008B75B0008F8
:1000A000B75B0008B75B0008B75B0008B75B0008E8
:1000B00089160008B75B0008B75B0008B75B00084B
:1000C000B75B0008B75B0008B75B0008B75B0008C8
:1000D000B75B0008115B0008B75B0008B75B00085E
:1000E000B75B0008B75B0008B75B0008B75B0008A8
:1000F000B75B0008B75B0008B75B0008B75B000898
:10010000B75B0008B75B0008B75B0008B75B000887
:10011000B75B0008B75B0008B75B0008B75B000877
:10012000B75B0008B75B0008B75B0008B75B000867
:10013000B75B0008B75B0008B75B0008B75B000857
:10014000B75B0008B75B0008B75B0008B75B000847
:10015000B75B0008B75B0008B75B0008B75B000837
:10016000B75B0008B75B0008B75B0008B75B000827
:10017000B75B0008B75B0008B75B0008B75B000817
:10018000B75B0008B75B000800F002F800F06FF8FA
:100190000AA090E8000C82448344AAF10107DA45E2
:1001A00001D100F064F8AFF2090EBAE80F0013F0C5
:1001B000010F18BFFB1A43F00103184770B9000084
:1001C00090B900000A444FF0000C10F8013B13F006
:1001D000070408BF10F8014B1D1108BF10F8015BA0
:1001E000641E05D010F8016B641E01F8016BF9D193
:1001F00013F0080F1EBF10F8014BAD1C0C1B09D1EA
:100200006D1E58BF01F801CBFAD505E014F8016B5B
:1002100001F8016B6D1EF9D59142D6D370470000ED
:100220000023002400250026103A28BF78C1FBD8FF
:10023000520728BF30C148BF0B60704766290AF0DB
:10024000B684642907F08882782907F0BF820020ED
:1002500070471FB50AF0A1FC07F0D2FE0400002091
:10026000002109F0D3FDE0601FBD10B510BD08F0FE
:1002700009F81146FFF7EDFF00F008F808F027F83D
:1002800003B4FFF7F2FF03BC05F0DEFB4FF4A06000
:1002900005F0A4FCA82005F055FB4FF4E13005F073
:1002A000E1FBFEA007F024FAC82005F0ADFB01F049
:1002B0006BFF01F013FC05F027FB02F09CF802E055
:1002C000C82005F0A1FB05F09AF80028F8D1032119
:1002D00040F2CF7001F022FC40F2CF71F24806F0FC
:1002E000FCFA40F2CF71F04806F0F9FA40F2CF7113
:1002F000ED4806F0F6FA40F2CF71EB4806F0F3FA5B
:10030000532141F2883001F07BFC00BFFEE710B5BD
:100310002DED0A8BE548007800287CD10120E349C7
:1003200008709FEDE30AE34880ED000A9FEDE20AC2
:1003300080ED020A9FEDE10AE14880ED000A9FEDA1
:10034000E10A80ED020AE04800880AF06FF841EC0B
:100350001B0B9FEDDE0B53EC102B09F05FFE41EC05
:100360001A0BB0EE4A0AF0EE6A0A08F085FDB0EE0C
:10037000409AF0EE609A9FEDD70B53EC102B51ECA6
:10038000190B0AF0A3F841EC180B0AF00BF8D3494B
:100390000870D34800880AF049F841EC1C0B9FED27
:1003A000D10B53EC102B09F039FE41EC1B0B9FEDE8
:1003B000CF0B53EC102B0AF089F841EC1A0BB0EE7E
:1003C0004A0AF0EE6A0A08F0BFFFB0EE408AF0EE8B
:1003D000608AC24800780AF029F841EC190B53EC06
:1003E000182B0AF073F8B34AC2E90401BC4800882C
:1003F0000AF01CF841EC1C0B9FEDBA0B53EC102BD0
:1004000009F00CFE41EC1B0B9FEDB80B53EC102BCD
:100410000AF05CF800E018E041EC1A0BB0EE4A0A72
:10042000F0EE6A0A08F0FCFFB0EE408AF0EE608A57
:10043000AA48007809F0FAFF41EC190B53EC182B8D
:100440000AF044F89E4AC2E90401AA4890ED000A65
:10045000984801F034FCB0EE409AF0EE609AA6485D
:1004600000680AF029FB41EC1A0B53EC192B09F038
:1004700021FD41EC180B09F0EBFC9F490860084690
:1004800090ED000A9D4801F01AFCB0EE408AF0EEB3
:10049000608A51EC180B09F0DBFC99490860994817
:1004A00090ED000A864801F00AFCB0EE409AF0EEAA
:1004B000609A954800680AF0FFFA41EC1A0B53EC79
:1004C000192B09F0F7FC41EC180B09F0C1FC8E491F
:1004D0000860084690ED000A8C4801F0F0FBB0EE91
:1004E000408AF0EE608A51EC180B09F0B1FC8849A3
:1004F0000860BDEC0A8B10BD10B52DED0C8B854846
:1005000000680AF0D9FA41EC1B0B9FED830B53EC0A
:10051000102B09F0DBFF41EC180B764800680AF05D
:10052000CBFA41EC1B0B9FED7E0B53EC102B09F02B
:10053000CDFF41EC190B53EC182B0AF0D3F941EC29
:100540001A0B09F085FC6B490860774800680AF0CF
:10055000B3FA41EC1B0B9FED700B53EC102B09F021
:10056000B5FF41EC1A0B674800680AF0A5FA41ECA8
:100570001B0B9FED6B0B53EC102B09F0A7FF41EC0D
:10058000180B53EC1A2B0AF0ADF941EC190B09F0DA
:100590005FFC5C490860574890ED000A20EE000AB5
:1005A0000846D0ED000A90ED001A00EE810A10EE28
:1005B000101A08460AF080FA41EC190BB0EE490A0D
:1005C000F0EE690A08F098FFB0EE408AF0EE608A1B
:1005D00051EC180B09F03CFC544908603A49098871
:1005E000481E09F00CFF41EC1C0B9FED510B53EC26
:1005F000102B09F013FD41EC1B0BB0EE4B0AF0EE93
:100600006B0A08F039FCB0EE40AAF0EE60AA9FED4C
:10061000310B53EC102B51EC1A0B09F057FF41EC46
:10062000180B424800680AF047FA41EC190B53ECEA
:10063000182B0AF049F811D23F4800680AF03CFA3A
:1006400041EC190B9FED3D0B53EC102B0AF04AF9CE
:1006500041EC180B09F0FCFB374908601A4909887E
:10066000481E09F0CCFE41EC1C0B9FED310B53EC06
:10067000102B09F0D3FC41EC1B0BB0EE4B0AF0EE53
:100680006B0A08F0F9FBB0EE40AAF0EE60AA9FED0D
:10069000110B53EC102B51EC1A0B53E0535047281D
:1006A0003139293B0A00000000040040A00100206D
:1006B0001F856B3E40000020000020C21F856BBEDE
:1006C00068000020000020422800002000000000F8
:1006D000004055406666666666A64C40A101002053
:1006E0002A00002000000000008076406F1283C0C6
:1006F000CA2119400400002034000020900000208E
:10070000100000200800002038000020B800002061
:100710001400002080010020000000000000E03FE5
:10072000000000000000F83F840100207801002054
:1007300000000000004065407C010020666666669F
:100740006666F23F09F0C2FE41EC180BFE480068F5
:100750000AF0B2F941EC190B53EC182B09F07AFEB0
:1007600011D2FA4800680AF0A7F941EC190B1FED05
:100770000D0B53EC102B09F09DFB41EC180B09F00D
:1007800067FBF2490860F14890ED000ADFEDF00ADE
:10079000B4EEE00AF1EE10FA03DD9FEDED0A80ED14
:1007A000000AEC4890ED000AEB48D0ED000A30EE6C
:1007B000600ADFEDEA0A20EE200A10EE101A084661
:1007C0000AF07AF941EC190BE24800680AF074F972
:1007D00041EC1D0B9FEDE20B53EC102B09F076FE64
:1007E00041EC1B0BDB4890ED000AD74890ED001A56
:1007F000C0EE010AD54890ED000A20EE800A10EE06
:10080000104A20460AF058F941EC1C0B53EC1B2B04
:1008100009F050FB41EC1A0B53EC192B09F04AFB81
:1008200041EC180B09F014FBCF490860CF4890ED5C
:10083000000ACF48D0ED000A30EE600ADFEDC70AAB
:1008400020EE200A10EE101A08460AF035F941ECA5
:10085000190BC64800680AF02FF941EC1D0B9FEDFB
:10086000C00B53EC102B09F031FE41EC1B0BBF48C1
:10087000D0ED000AB44890ED001A80EE810AB3482A
:10088000D0ED000A20EE200A10EE104A20460AF0B1
:1008900013F941EC1C0B53EC1B2B09F00BFB41EC47
:1008A0001A0B53EC192B09F005FB41EC180B09F05E
:1008B000CFFAB0490860AD4890ED000AAC4880ED31
:1008C000000AA44890ED000AA34880ED000A9E4863
:1008D00090ED000AA848A949098800EB810080ED45
:1008E000000AA6480088401CC82190FBF1F201FBD9
:1008F0001200A14901EB800090ED000A08469F49D3
:10090000098800EB8100D0ED000A9D4890ED001AA7
:1009100070EE810A30EEC00A80ED000A994909881C
:10092000481E09F06CFD41EC1C0B1FED7F0B53ECD6
:10093000102B09F073FB41EC1A0BB0EE4A0AF0EEF3
:100940006A0A08F099FAB0EE40BAF0EE60BA9FED8C
:100950008E0B53EC102B51EC1B0B09F0B7FD41EC47
:10096000180B874800680AF0A7F841EC190B53EC04
:10097000182B09F0A9FE02D20120854908807F4882
:100980000088401CC82190FBF1F201FB12007B495A
:100990000880BDEC0C8B10BD10B52DED048B9FEDC8
:1009A0007D0A7D4880ED000A9FED7C0A80ED020AF9
:1009B0009FED7B0A7B4880ED000A9FED7B0A80ED6E
:1009C000020A9FED7A0B744880ED040B9FED770BC4
:1009D000744880ED040B654890ED000A20EE000A93
:1009E0005C48D0ED000A90ED001A00EE810A10EE8E
:1009F000101A08460AF060F841EC190BB0EE490AEB
:100A0000F0EE690A08F078FDB0EE408AF0EE608AF8
:100A100051EC180B09F01CFA66490860084690ED85
:100A2000000AF2EE000AB4EEE00AF1EE10FA25DD5B
:100A30004E4890ED000AB5EEC00AF1EE10FA05DD61
:100A40009FED5D0B544880ED040B04E09FED5C0BC3
:100A5000514880ED040B3F4890ED000AB5EEC00A06
:100A6000F1EE10FA05DD9FED540B4E4880ED040BBE
:100A700004E09FED530B4B4880ED040B3B4890ED99
:100A8000000A454801F01BF9B0EE408AF0EE608A9A
:100A900051EC180B09F0DCF9334908602D4890ED52
:100AA000000A404801F00BF9B0EE408AF0EE608A8F
:100AB00051EC180B09F0CCF92E4908603D4890ED37
:100AC000000AF1EE040AB4EEE00AF1EE10FA04DDD9
:100AD000B7EE000A3C4880ED000A3648006809F08D
:100AE000EBFF41EC180B9FED390B53EC102B09F089
:100AF000B1FC75D2344890ED000AB5EEC00AF1EEB3
:100B000010FA7CD0194890ED000A3248D0ED000A66
:100B100030EE600A10EE101A084609F0CDFF41ECE5
:100B2000180B9FED2D0B53EC102B09F0CDFD66D269
:100B30000E4890ED000A2748D0ED000A30EE600A1A
:100B400010EE101A08464CE0780100207C010020CD
:100B50000000AF4308000020840100200000704224
:100B6000F6285C8FC2F5E83F10000020040000204A
:100B70008001002014000020640200208801002071
:100B80007401002028000020000000000062C64020
:100B9000020000200000A0C24000002000008743A7
:100BA0000000A04268000020000087C30000000091
:100BB0000000000068010020000000000000F03F7D
:100BC000000000000000F0BF700100203333333319
:100BD0003333FB3F6C0100209A9999999999B9BFD9
:100BE0000DE009F069FF41EC180B9FEDFE0B53EC93
:100BF000102B09F02FFC02D20120FC490880BDEC2B
:100C0000048B10BD10B52DED068B1FED180B53ECAA
:100C1000102BF74890ED000B51EC100B09F056FB30
:100C200027D11FED1E0B53EC102BF24890ED000B5B
:100C300051EC100B09F04AFB1BD11FED210BEC48C6
:100C400080ED000B9FEDEC0AEC4880ED000A9FED73
:100C5000EC0A80ED020A9FEDEB0AEB4880ED000AFA
:100C6000BBEE040A80ED020A9FEDE80BE34880ED3D
:100C7000040B1FED320B53EC102BDE4890ED000BF4
:100C800051EC100B09F022FB35D11FED380B53EC62
:100C9000102BD74890ED000B51EC100B09F016FB10
:100CA00029D0DC4890ED000AD44801F008F8B0EEF5
:100CB000409AF0EE609AD848006809F0FDFE41ECD9
:100CC0001A0B53EC192B09F0F5F841EC180B09F04D
:100CD000BFF8D1490860084690ED000ACF4800F0FF
:100CE000EEFFB0EE408AF0EE608A51EC180B09F08E
:100CF000AFF8CB490860C74890ED000AF3EE020A4E
:100D0000B4EEE00AF1EE10FA15DD1FED580B53ECCE
:100D1000102BB84890ED000B51EC100B09F0D6FAEF
:100D200009D11FED5B0BB34880ED000B9FEDBD0AB1
:100D3000BB4880ED000AB74890ED000AB5EEC00A46
:100D4000F1EE10FA21D21FED670B53EC102BA948DE
:100D500090ED000B51EC100B09F0B8FA15D01FED17
:100D60006D0B53EC102BA24890ED000B51EC100BC7
:100D700009F0ACFA09D09FEDAC0AA94880ED000A51
:100D80001FED760B9A4880ED000BA24890ED000A0B
:100D9000B5EEC00AF1EE10FA21DD1FED7C0B53EC2D
:100DA000102B944890ED000B51EC100B09F08EFACB
:100DB00015D01FED820B53EC102B8D4890ED000BDE
:100DC00051EC100B09F082FA09D19FED980A944872
:100DD00080ED000A1FED880B854880ED000B9448DC
:100DE00090ED000A884800F06AFFB0EE408AF0EE0D
:100DF000608A51EC180B09F02BF88E490860854881
:100E000090ED000AF3EE010AB4EEE00AF1EE10FAFA
:100E100008DC90ED000AFBEE010AB4EEE00AF1EE08
:100E200010FA02D2012071490880BDEC068B10BD7A
:100E300010B52DED0A8B8048008820B97F480088C6
:100E400008B9FFF7DFFE7C48008800286BD07B489C
:100E50000088002867D17848008809F0E7FA41EC5B
:100E60001B0B9FED770B53EC102B09F0D7F841ECDF
:100E70001A0BB0EE4A0AF0EE6A0A07F0FDFFB0EE78
:100E8000409AF0EE609A9FED700B53EC102B51ECF2
:100E9000190B09F01BFB41EC180B08F0D9FF6C494A
:100EA00008606C480068E8BB6B480068D0BB6248CB
:100EB000008837280ADBB2EE000A684880ED000A95
:100EC0009FED670A674880ED000A09E0B2EE0E0A5E
:100ED000624880ED000A9FED640A624880ED000AD6
:100EE00055480088A03000EE100AB8EEC00A5F48EE
:100EF00080ED000A0120574908609FED3F0A3F48F6
:100F000080ED000A9FED3E0A80ED020A9FED3D0A4A
:100F10003D4880ED000ABBEE040A80ED020A4C4811
:100F2000006801E00DE014E209F0C6FD41EC180B89
:100F30009FED4F0B53EC102B09F0C8FA2F4AC2E972
:100F400004014548006860BB4248006848B3314826
:100F500090ED000A294800F0B2FEB0EE409AF0EEA3
:100F6000609A2D48006809F0A7FD41EC1A0B53EC7C
:100F7000192B08F09FFF41EC180B08F069FF264978
:100F80000860084690ED000A244800F098FEB0EE94
:100F9000408AF0EE608A51EC180B08F059FF2049A6
:100FA00008601C4890ED000A2948D0ED000AB4EE14
:100FB000E00AF1EE10FA0ADD2748006838B901208E
:100FC000254908609FED170A154880ED000A114871
:100FD00090ED000AB5EEC00AF1EE10FA64D21E4898
:100FE000006849E09A9999999999B93F02000020BF
:100FF00090010020980100201F856B3E40000020DA
:10100000000020C2000082426800002000000000B2
:101010000000324004000020340000209000002036
:10102000100000200000000000007AC300007A4396
:101030000800002014000020280000202A000020C2
:1010400000000000004065406666666666A64C408B
:1010500058010020340100203801002060010020E8
:10106000CDCC4C3E640100206666E63E5C0100206B
:101070009A9999999999F13FB0B1FE48006898B151
:10108000FD48007880B10120FC4908700020FA4931
:101090000870FB4890ED000AB1EE400AF94880ED77
:1010A000000A0020F3490860F74890ED000AB5EE09
:1010B000C00AF1EE10FA14DDF448006888B1ED487A
:1010C000006870B9EC48007858B10020EA4908700F
:1010D000EB4890ED000AEB4880ED000A0120E5495D
:1010E0000860E94890ED000AE948D0ED000A30EECA
:1010F000600A10EE101A084609F0DEFC41EC180BED
:101100009FEDE40B53EC102B09F0A4F97ED2DE48DE
:1011100090ED000ADE48D0ED000A30EE600A10EED5
:10112000101A084609F0C8FC41EC180B9FEDDB0BC8
:1011300053EC102B09F0C8FA68D2CF480078002889
:1011400064D1D14890ED000AD648D0ED000AB4EE43
:10115000E00AF1EE10FA1ADDCB4890ED000AD14812
:10116000D0ED000A30EE600A90ED001AC0EE010AE0
:10117000CD4890ED001ACD4890ED000A00EE810AAE
:10118000BF48D0ED000A30EEC00A80ED000ABE482C
:1011900090ED000AC348D0ED000AB4EEE00AF1EE8B
:1011A00010FA23D2B84890ED000AB5EEC00AF1EE6D
:1011B00010FA1BDDBB4890ED000AB348D0ED000AE1
:1011C00030EE600AB74890ED001AC0EE010AB6484A
:1011D00090ED001AB54890ED000A00EE810AA8488B
:1011E000D0ED000A30EE200A80ED000AA64890ED0E
:1011F000000AAC48D0ED000AF1EE600AB4EEE00A55
:10120000F1EE10FA1ED290ED000A00E04EE0B1EED1
:10121000400A9D48D0ED000A30EE600AA14890EDEA
:10122000001AC0EE010AA04890ED001A9F4890ED08
:10123000000A00EE810A9248D0ED000A30EEC00AA2
:1012400080ED000A904890ED000A9648D0ED000A23
:10125000F1EE600AB4EEE00AF1EE10FA23DD8A48FE
:1012600090ED000AB5EEC00AF1EE10FA1BD28D48DF
:1012700090ED000A8448D0ED000A30EE200A89483B
:1012800090ED001AC0EE010A874890ED001A8748D9
:1012900090ED000A00EE810A7948D0ED000A30EEA8
:1012A000200A80ED000A012073490870804890ED03
:1012B000000A804800F003FDB0EE408AF0EE608A3C
:1012C00051EC180B08F0C4FD7B4908606E4890EDA6
:1012D000000A6F4880ED000A68480078C8B371487A
:1012E000006809F0E9FB41EC1A0B9FED740B53EC1D
:1012F000102B09F0F7FA41EC180B6348006809F06D
:10130000DBFB41EC190B53EC182B09F0DDF91DD96F
:10131000644890ED000AB1EE400A10EE100A09F0A0
:10132000CBFB41EC1A0B9FED650B53EC102B08F037
:10133000C1FD41EC190B5448006809F0BDFB41ECBC
:10134000180B53EC192B09F085F802D801205D49E0
:1013500008805D480088002877D05C480088002815
:1013600073D1494890ED000A20EE000A5048D0EDB4
:10137000000A90ED001A00EE810A10EE101A0846DD
:1013800009F09AFB41EC190BB0EE490AF0EE690A3C
:1013900008F0B2F8B0EE408AF0EE608A51EC180B1B
:1013A00008F056FD4A4908604A480068962809D165
:1013B0001FEDE40A334880ED000A1FEDE60A3E48BF
:1013C00080ED000A43480068F0BB414890ED000AF8
:1013D000F0EE000AB4EEE00AF1EE10FA34D23A4828
:1013E000008809F023F841EC1C0B9FED3B0B53ECFC
:1013F000102B09F06BF841EC1B0B9FED390B53ECF4
:10140000102B08F00BFE41EC1A0BB0EE4A0AF0EE7E
:101410006A0A07F099FFB0EE409AF0EE609A9FEDED
:10142000320B53EC102B51EC190B09F04FF841EC37
:10143000180B08F00DFD134908602348008808F0D8
:10144000F5FF41EC1C0B01E068E079E09FED220B19
:1014500053EC102B09F03AF841EC1B0B9FED200BDD
:1014600053EC102B08F0DAFD41EC1A0BB0EE4A0AEF
:101470003EE000003401002054010020550100200E
:101480005C01002010000020040000203801002032
:10149000440100209A9999999999A93F9A99999903
:1014A0009999A9BF58010020600100206401002023
:1014B000080000206800002014000020333333337C
:1014C0003333F33F020000202A00002028000020D0
:1014D0004C010020400100206F1283C0CA21194036
:1014E000000000000080764000000000007097407F
:1014F000F0EE6A0A07F094FFB0EE409AF0EE609AC0
:101500009FEDB80B53EC102B51EC190B08F0DEFFDC
:1015100041EC180B08F09CFCB4490860B44890ED0D
:10152000000AF3EE040AB4EEE00AF1EE10FA02DD6E
:101530000120B0490880B0480068401CAE490860EE
:10154000BDEC0A8B10BDAD480088002871D0AB48B7
:101550000088112814D2DFE800F0951F23272B14F0
:101560004E6D8B2F446281093A5877000520A449BB
:101570000880A4480088A44908800020A149088068
:1015800080E006209E4908809E4800889F49088088
:1015900000209C49088075E001209949088071E08D
:1015A0000220974908806DE003209549088069E092
:1015B00004209349088065E09248008800EB800091
:1015C0004FF6FF7101EA40008E4908805AE08D48CD
:1015D000008800EB8000012101EB40008949088070
:1015E00050E08848008800EB8000022101EB4000B9
:1015F0008449088046E08348008800EB800003218E
:1016000001EB40007F4908803CE07E48008800EB09
:101610008000042101EB40007A49088032E07948DB
:10162000008800EB8000052101EB4000754908802F
:1016300028E028E07348008800EB8000062101EBD9
:101640004000704908801DE06E48008800EB800073
:10165000072101EB40006B49088013E069480088CE
:1016600000EB8000082101EB40006649088009E09A
:101670006448008800EB8000092101EB40006149CB
:10168000088000BF00BF704710B52DED028B01210F
:10169000880705F0ECFB01287ED15D4A5D495E4874
:1016A00003F0FDFEB7EE001AF2EE040A5A4890ED80
:1016B000000A00F003FD584880ED000AB7EE001A5A
:1016C000F2EE040A534890ED000A00F023FD514861
:1016D00080ED000A00F076FD48490880FFF733FFEF
:1016E00047480088012801D1FFF7A2FB4448008841
:1016F000022801D1FFF750F941480088032801D1A1
:10170000FEF7FAFE3E480088042801D1FEF7FFFDEF
:101710003649424800F0A5FB344890ED000ABDEE82
:10172000C00A10EE101A3D4890ED000ABDEEC00A46
:1017300010EE100A00F047FB394801880088401C71
:10174000374A1080642091FBF0F200FB1210002851
:1017500040D13448006808B9012000E00020314938
:1017600008602448008838B12F48006808B9012073
:1017700000E000202C4908602148008818B120486A
:101780000088032826DD2448006809F095F941EC1B
:10179000180B53EC182B00E01CE024A005F0A8FF68
:1017A0001C48006809F088F941EC180B53EC182B21
:1017B00026A005F09DFF144801882BA005F098FF96
:1017C000124801882EA005F093FF0E48018832A030
:1017D00005F08EFF0121880705F05AFBBDEC028B56
:1017E00010BD000000000000007097C01400002031
:1017F0004C010020020000204001002024000020B5
:10180000260000202C000020280000202A000020B4
:101810000C00002008000020040000201000002020
:1018200000000020B002424294024142445331364B
:10183000283233302C3231302C2770697463683A87
:101840002566272C3135293B0000000044533136F2
:101850002834302C3231302C27726F6C6C3A25666C
:10186000272C3135293B000044533332283138309E
:101870002C3133302C27253364272C3135293B007C
:1018800044533332283138302C39302C27253364F7
:10189000272C3135293B000044533332283138306E
:1018A0002C35302C27253364272C3135293B0A0071
:1018B000704700BFFEE700BFFEE700BFFEE700BFC6
:1018C000FEE7704770477047704700000CB5002076
:1018D000019000907648006840F4803074490860B8
:1018E00000BF7348006800F4003000900198401C6D
:1018F0000190009818B90198B0F5A04FF1D16C484B
:10190000006800F4003010B10120009001E00020D8
:1019100000900098012846D165484030006840F0AA
:1019200080506349403108606248006840F440409C
:10193000604908605E48083000685D490831086009
:101940000846006840F4004008600846006840F41B
:10195000A05008605848091F0860081F006840F040
:101960008070091F086000BF5148006800F00070D7
:101970000028F9D040F20570504908604C48083002
:10198000006820F003004A490831086008460068F2
:1019900040F00200086000BF45480830006800F0D1
:1019A0000C000828F8D10CBD10B54548006840F47B
:1019B0007000434908603E48006840F001003C491F
:1019C000086000203A4908310860394800683D49FC
:1019D0000840374908603C48091D0860081F006836
:1019E00020F48020091F0860002031490C31086074
:1019F000FFF76CFF4FF0006031498039086010BD7F
:101A000070B500200022022300240221284D083551
:101A10002D6805F00C0020B1042806D0082834D128
:101A200007E02A4D2A4E356033E02A4D284E3560B6
:101A30002FE01F4D2D1D2D68C5F380541C4D2D1D0D
:101A40002D6805F03F0154B1224DB5FBF1F5184E5C
:101A5000361D3668C6F3881605FB06F209E01B4DF5
:101A6000B5FBF1F5124E361D3668C6F3881605FB38
:101A700006F20F4D2D1D2D68C5F301456D1C6B0041
:101A8000B2FBF3F5124E356003E0104D104E356099
:101A900000BF00BF064D08352D68C5F303150E4E77
:101AA000705D0B4D2D68C540094E356070BD00005E
:101AB000003802400070004008544007003C0240DB
:101AC00088ED00E0FFFFF6FE103000240024F40053
:101AD000A401002000127A00A80100201CB50121F9
:101AE000102005F08BFC4FF47040009001208DF821
:101AF000040000208DF8060003208DF80500012069
:101B00008DF807006946044804F05EF94FF470410F
:101B1000014804F0D7F91CBD0010024030B58BB06D
:101B200004460D460121022005F0B1FC01210420EC
:101B300005F064FC4FF47070099002208DF82800C5
:101B400003208DF8290000208DF82A0001208DF84F
:101B50002B0009A9414804F037F9022206213F4829
:101B600004F0BDF9022207213C4804F0B8F9022232
:101B700008213A4804F0B3F902220921374804F059
:101B8000AEF9ADF818500020ADF81A000794ADF882
:101B9000200006A9324804F0B2FC7020ADF8040021
:101BA0000120ADF806000220ADF8100001A92C4874
:101BB00004F03AFD01A92A4804F06FFD01A9284864
:101BC00004F0B8FD01A9264804F01AFE08212448B3
:101BD00004F0B7FE0821224804F0BCFE082120488A
:101BE00004F0C5FE08211E4804F0CAFE01211C486D
:101BF00004F0F0FC01211A4804F00AFD0BB030BDDE
:101C00007FB505460C460121084605F040FC0295CB
:101C1000A0B2ADF804000020ADF80600ADF80C004D
:101C200001A94FF0804004F06AFC012211469007A0
:101C300005F006F90121880704F0EAFC1C208DF864
:101C4000000001208DF8010003208DF80200012022
:101C50008DF80300684603F0C6FF7FBD0008024010
:101C6000000400409FED990A80ED000A9FED970A5D
:101C700080ED010A9FED950A80ED020A9FED940B1D
:101C800080ED040B9FED910A80ED060A9FED8F0A0F
:101C900080ED070A9FED8D0A80ED080A9FED8B0A03
:101CA00080ED090A704780ED000AC0ED010A80ED61
:101CB000021A704780ED080AC0ED090A704710B596
:101CC0002DED108B0446B0EE408A18EE100A08F095
:101CD000F3FE41EC1B0B94ED041BB0EE410AF0EE59
:101CE000610A53EC102B08F0FDFD41EC190B94ED4B
:101CF000060AD4ED010A20EE200A10EE101A08465A
:101D000008F0DAFE41EC1B0B94ED070A38EE400AAE
:101D1000D4ED020A20EE200A10EE101A084608F050
:101D2000CBFE41EC1D0B94ED000A10EE101A084694
:101D300008F0C2FE41EC1F0B53EC192B08F0C6FB58
:101D400041EC1E0B53EC1D2B08F0B4F841EC1C0BBE
:101D500053EC1B2B08F0AEF841EC1A0B84ED078A0C
:101D600094ED060A10EE101A084608F0A5FE41ECA4
:101D70001C0B53EC192B08F09DF841EC1B0B08F0E1
:101D800067F8A06194ED060AD4ED080AB4EEE00A03
:101D9000F1EE10FA03DD94ED080A84ED060A94EDE5
:101DA000060AD4ED090AB4EEE00AF1EE10FA03D205
:101DB00094ED090A84ED060AB0EE4A0AF0EE6A0ACA
:101DC000BDEC108B10BD70B504460D46002C02DD35
:101DD000962C00DA962414F1960F03DD002C01DC1A
:101DE0006FF09504002D02DD962D00DA962515F191
:101DF000960F03DD002D01DC6FF09505002C0ADB4A
:101E000040F23A71344804F068FD40F2CF70011B93
:101E1000314804F066FD002C09DA04F2CF712E4837
:101E200004F05BFD40F23A712B4804F05AFD002D9E
:101E30000ADB40F23A71284804F051FD40F2CF70BD
:101E4000411B254804F04FFD002D09DA05F2CF7142
:101E5000214804F044FD40F23A711F4804F043FD6C
:101E600070BD90ED000ADFED1D0AB4EEE00AF1EE60
:101E700010FA03DD9FED190A80ED000A90ED000ACB
:101E8000DFED170AB4EEE00AF1EE10FA03D29FED8F
:101E9000140A80ED000A91ED000ADFED100AB4EE9D
:101EA000E00AF1EE10FA03DD9FED0C0A81ED000A65
:101EB00091ED000ADFED0A0AB4EEE00AF1EE10FA45
:101EC00003D29FED070A81ED000A70470000000071
:101ED00000000000000000000004004000E0F944A1
:101EE00000E0F9C42DE9F0472DED088B05460F46BB
:101EF000B0EE409A91460026B0469FED9C0BB0EEA6
:101F0000408AF0EE608A9FED9B0AF0EE409A002432
:101F10000CE035F8140008F089FA41EC1A0B53EC88
:101F2000182B07F0C7FF41EC180B641CBC42F0D320
:101F3000384608F07BFA41EC1B0B53EC1B2B51ECA1
:101F4000180B08F06BF841EC1A0B07F081FF09EE53
:101F5000900AB9F1000F53D0002427E035F814009F
:101F600000EE100AB8EE400AF7EE000A79EE200AF9
:101F700060EEA90AB4EEE00AF1EE10FA15D835F8D1
:101F8000140000EE100AB8EE400AF7EE000A70EEF8
:101F9000C90A60EEA90AB4EEE00AF1EE10FA04DB19
:101FA00035F8140025F81600761C641CBC42D5D305
:101FB0009FED6E0BB0EE408AF0EE608A00240CE0DC
:101FC00035F8140008F032FA41EC1A0B53EC182BD8
:101FD00007F070FF41EC180B641CB442F0D330469C
:101FE00008F024FA41EC1B0B53EC1B2B51EC180BA3
:101FF00008F014F841EC1A0B07F02AFF09EE900ADA
:10200000B9F1020F54D1002428E035F8140000EE95
:10201000100AB8EE400AF7EE000A79EE200A60EEE8
:10202000A90AB4EEE00AF1EE10FA16D835F8140059
:1020300000EE100AB8EE400AF7EE000A70EEC90A88
:1020400060EEA90AB4EEE00AF1EE10FA05DB35F80D
:10205000140025F8180008F10108641CB442D4D318
:102060009FED420BB0EE408AF0EE608A00240CE057
:1020700035F8140008F0DAF941EC1A0B53EC182B80
:1020800007F018FF41EC180B641C4445F0D33046B0
:1020900008F0CCF941EC1B0B53EC1B2B51EC180B4B
:1020A00007F0BCFF41EC1A0B07F0D2FE09EE900AD4
:1020B000B0EE690ABDEC088BBDE8F087F0EE401A7F
:1020C000B0EE602A2C4890ED004AF0EE442A2B48EE
:1020D00090ED004A34EE014AF0EE440A30EE824AB6
:1020E000C0EE844AB0EE643A71EEE24AB0EE624A63
:1020F00003EE244AB0EE440AB7EE004A34EE434AF7
:1021000024EE204AF0EE443AC0ED003A1A4880ED41
:10211000000A7047F0EE401AB0EE602A184890EDC1
:10212000004AF0EE442A174890ED004A34EE014A86
:10213000F0EE440A30EE824AC0EE844AB0EE643AD1
:1021400071EEE24AB0EE624A03EE244AB0EE440A6F
:10215000B7EE004A34EE434A24EE204AF0EE443A09
:10216000C0ED003A064880ED000A7047000000000C
:102170000000000000000000B8010020BC010020A9
:10218000C0010020C40100201CB50121102005F071
:1021900035F9F020009001208DF8040003208DF81F
:1021A000050001208DF8070069464A4803F00CFE3F
:1021B0000F20009000208DF804006946454803F088
:1021C00003FE1CBD2DE9F04100240026414803F028
:1021D00073FE414908800846008800F47F4008806B
:1021E000084601883B4803F074FE0121394803F09A
:1021F0004DFE78B10221374803F048FE50B104216A
:10220000344803F043FE28B10821324803F03EFE73
:10221000002848D1102524E0F020A8432E4A128837
:1022200040EA02012B4803F054FE0121294803F043
:102230002DFE07460221274803F028FE074004210F
:10224000244803F023FE07400821224803F01EFE25
:10225000074007B907E0201D84B24FF6FF7000EA7F
:102260004505802DD8DD00BF01211A4803F00EFE80
:1022700010B9601C86B216E00221164803F006FE73
:1022800010B9A01C86B20EE00421124803F0FEFD36
:1022900010B9E01C86B206E008210E4803F0F6FDF6
:1022A00008B9201D86B20D48008828B926B1012042
:1022B0000A4908800A4806800848008838B136B9BB
:1022C00000200649088006480078BDE8F08100201B
:1022D000FBE7000000100240CC010020C8010020F4
:1022E000CA01002070B505460C4603F003FAD02061
:1022F00003F0A9FA03F03FFA18B103F01DFA012028
:1023000070BD284603F09FFA03F035FA204603F02B
:102310009AFA03F030FA18B103F00EFA0120EFE751
:1023200003F00AFA0020EBE770B504460025BC2C48
:1023300001DB012510E0622C01DB02250CE02A2CD8
:1023400001DB032508E0142C01DB042504E00A2C42
:1023500001DB052500E0062529461A20FFF7C2FF0C
:1023600070BD70B50446B4F57A7F01DD4FF47A7420
:10237000042C00DA04244FF47A7090FBF4F0401E31
:10238000C5B229461920FFF7ADFF0546264604EBE6
:10239000D671C1F34F00FFF7C7FF70BD70B504469B
:1023A00003F0A8F9D02003F04EFA03F0E4F9204638
:1023B00003F049FA03F0DFF903F09CF9D12003F0B0
:1023C00042FA03F0D8F9002003F069FA054603F059
:1023D000B3F9284670BD10B50446E006010E1C2076
:1023E000FFF780FF10BD10B50446E006010E1B206C
:1023F000FFF778FF10BD10B503F05EF980216B2068
:10240000FFF770FF642003F0FFFA00216B20FFF755
:1024100069FF0320FFF7E7FF0020FFF7DCFF322012
:10242000FFF79FFF00213820FFF75CFF00216A20A3
:10243000FFF758FF00212320FFF754FF80213720AA
:10244000FFF750FF7520FFF7A9FF0446682C0BD15A
:1024500001216B20FFF746FF00216C20FFF742FFB0
:102460003220FFF77EFF01E0012010BD0020FCE7D5
:102470002DE9F04106460F4614461D4603F03AF991
:10248000002141EA4601C8B203F0DDF903F073F917
:1024900020B103F051F90120BDE8F081384603F086
:1024A000D2F903F068F903F025F9012101EB4601A7
:1024B000C8B203F0C8F903F05EF90DE0012C04D1B5
:1024C000002003F0ECF9287003E0012003F0E7F9A5
:1024D0002870601EC4B26D1C002CEFD103F02CF9E3
:1024E0000020D9E710B52DED088B82B001AB022298
:1024F00041216820FFF7BCFF9DF805009DF80410FE
:1025000040EA012004B2204607F079FF41EC1B0BA2
:102510009FED500B53EC102B07F080FD41EC1A0B94
:102520009FED4E0B53EC102B07F0C4FC41EC190B44
:1025300007F08EFC08EE100A9FED4A0A28EE000A0A
:10254000BDEEC00A10EE100A00B202B0BDEC088B5E
:1025500010BD2DE9FC4104460D4616466B46062289
:1025600043216820FFF784FF0746BFB99DF80100AB
:102570009DF8001040EA012000B220809DF8030081
:102580009DF8021040EA012000B228809DF8050065
:102590009DF8041040EA012000B230803846BDE8C2
:1025A000FC812DE9FC4104460D4616466B46062289
:1025B0003B216820FFF75CFF0746BFB99DF801008B
:1025C0009DF8001040EA012000B220809DF8030031
:1025D0009DF8021040EA012000B228809DF8050015
:1025E0009DF8041040EA012000B230803846BDE872
:1025F000FC812DE9F04105460E461746984603F04A
:1026000079F8002141EA4501C8B203F01CF903F052
:10261000B2F820B103F090F80120BDE8F081304617
:1026200003F011F903F0A7F800240CE018F80400F7
:1026300003F009F903F09FF818B103F07DF80120C9
:10264000EBE7601CC4B2BC42F0DB03F075F800207D
:10265000E3E700000000000000407540A4703D0A60
:10266000D74342400000C84210B5C8234FF48062EF
:10267000F74940F6F63002F0C9FC10BD10B586B03F
:102680000446F4A000680390F3A000680290F3A051
:1026900000680190F2A00068009004F0030003A914
:1026A000085C8DF8140003A8C4F3C101405C8DF8E8
:1026B000150003A8C4F38111405C8DF8160004F0E6
:1026C000030002A9085C8DF8100002A8C4F3C10140
:1026D000405C8DF8110002A8C4F38111405C8DF8B4
:1026E000120005AA032140F2264002F015FC18B1A1
:1026F0004FF0FF3006B010BD04AA032140F22A407B
:1027000002F00AFC10B14FF0FF30F3E7019805909A
:102710000098049004F0040058B19DF8140040F0B3
:1027200001008DF814009DF8100040F001008DF8B4
:10273000100004F0200058B19DF8150040F0010091
:102740008DF815009DF8110040F001008DF8110082
:1027500004F4807058B19DF8160040F001008DF827
:1027600016009DF8120040F001008DF8120005AA35
:1027700003214FF4886002F0CFFB10B14FF0FF301F
:10278000B8E704AA032140F2314002F0C5FB10B1C2
:102790004FF0FF30AEE7B34804810020AAE71FB531
:1027A0000446B048007A00F0030054F8200001907D
:1027B000AC48007A00F0040010B10198404201904A
:1027C000A848007AC0F3C10054F820000290A54840
:1027D000007A00F0200010B1029840420290A14817
:1027E000007AC0F3811054F8200003909D480089BE
:1027F00000F4807010B10398404203909A49019808
:1028000080FB0101800F40EA810001909649029807
:1028100080FB0110820042EA917002909249039875
:1028200080FB0110820042EA917003900198000E33
:102830008DF800000198000C8DF801000198000A45
:102840008DF802000198C0B28DF803006A46042199
:102850004FF4747002F060FB18B14FF0FF3004B019
:1028600010BD0298000E8DF800000298000C8DF843
:1028700001000298000A8DF802000298C0B28DF89B
:1028800003006A4604214FF4757002F045FB10B155
:102890004FF0FF30E3E70398000E8DF80000039837
:1028A000000C8DF801000398000A8DF802000398CF
:1028B000C0B28DF803006A4604214FF4767002F02E
:1028C0002BFBCCE770B588B0064601A801F013FDDC
:1028D000BDF804000021C90341EA5045C403614822
:1028E000007A00F0030056F8200005905D48007A59
:1028F00000F0040010B10598404205905948007A54
:10290000C0F3C10056F8200006905648007A00F047
:10291000200010B10698404206905248007AC0F359
:10292000811056F8200007904E48008900F480700E
:1029300010B10798404207900598C117A0FB0423E7
:1029400001FB043100FB0510810041EA9270059003
:102950000698C117A0FB042301FB043100FB0510FE
:10296000810041EA927006900798C117A0FB0423EA
:1029700001FB043100FB0510810041EA92700790D1
:102980000598000E8DF808000598000C8DF80900D8
:102990000598000A8DF80A000598C0B28DF80B0062
:1029A0000698000E8DF80C000698000C8DF80D00AE
:1029B0000698000A8DF80E000698C0B28DF80F0038
:1029C0000798000E8DF810000798000C8DF8110084
:1029D0000798000A8DF812000798C0B28DF813000E
:1029E00002AA0C214FF4257002F096FA08B070BDCF
:1029F00030B585B004461DA207CA02AB07C3C82C78
:102A000003DD4FF0FF3005B030BDC82090FBF4F07F
:102A1000401E85B2280A8DF80000E8B28DF801004A
:102A20006A46022140F2162002F076FA10B14FF009
:102A3000FF30E8E702AA0C2140F6C12002F06CFA50
:102A400010B14FF0FF30DEE7064884810020DAE75E
:102A5000B2AB00084CCD6C000CC92C003656760089
:102A6000264666008405002009E3CA02FEF2ABC4D4
:102A7000AAF1DFDFBBAFDFDF0146F94880890880BC
:102A800000207047F0B52DED028B83B006460F464F
:102A900006F0070010B1B7F5C86F05DD4FF0FF3045
:102AA00003B0BDEC028BF0BD00EE107AB8EE400A28
:102AB000DFEDEC0A80EE208A01A801F098FB9DF87A
:102AC0000400022806D0042817D0082828D010288F
:102AD0004CD138E09FEDE40A28EE000ABCEEC00AB3
:102AE00010EE100A84B29FEDE10A28EE000ABCEE57
:102AF000C00A10EE100A85B23BE09FEDDD0A28EE19
:102B0000000ABCEEC00A10EE100A84B29FEDD90A8A
:102B100028EE000ABCEEC00A10EE100A85B228E0CA
:102B20009FEDD50A28EE000ABCEEC00A10EE100A8E
:102B300084B29FEDD20A28EE000ABCEEC00A10EE65
:102B4000100A85B215E09FEDCE0A28EE000ABCEE11
:102B5000C00A10EE100A84B29FEDCA0A28EE000ADD
:102B6000BCEEC00A10EE100A85B202E04FF0FF3052
:102B700096E700BF20128DF80800E0B28DF809003A
:102B800028128DF80A00E8B28DF80B0006F001005B
:102B9000A0B102AA02214FF4EA7002F0BDF910B10F
:102BA0004FF0FF307CE70DF10A0202214FF49270E2
:102BB00002F0B2F910B14FF0FF3071E706F00200F9
:102BC000A0B102AA02214FF4EC7002F0A5F910B1F5
:102BD0004FF0FF3064E70DF10A0202214FF49470C8
:102BE00002F09AF910B14FF0FF3059E706F00400F7
:102BF000A0B102AA02214FF4EE7002F08DF910B1DB
:102C00004FF0FF304CE70DF10A0202214FF49670AD
:102C100002F082F910B14FF0FF3041E700203FE7AA
:102C200038B504460020009004F0010020B19DF862
:102C3000000040F03000009004F0020020B19DF848
:102C4000000040F00C00009004F0040020B19DF85A
:102C5000000040F0030000906A4601214FF4A47088
:102C600002F05AF938BD38B50446012C01DA0124C6
:102C700002E0042C00DD0424601EC0B200906A460D
:102C8000012140F24F1002F047F938BD38B5044633
:102C9000052094FBF0F085B228128DF80000E8B210
:102CA0008DF801006A4602214FF4EF7002F034F90A
:102CB00038BD38B50446052094FBF0F085B22812E3
:102CC0008DF80000E8B28DF801006A4602214FF449
:102CD000ED7002F021F938BDF8B505460E464FF407
:102CE0007A7095FBF0F000FB06F4200E8DF80000E2
:102CF000200C8DF80100200A8DF80200E0B28DF85A
:102D000003006A4604214FF4AE7002F005F9F8BDE5
:102D100038B50446052094FBF0F084B220128DF8FB
:102D20000000E0B28DF801006A4602214FF4AD7058
:102D300002F0F2F838BD38B50446052094FBF0F0F7
:102D400084B220128DF80000E0B28DF801006A46CE
:102D500002214FF4AC7002F0DFF838BD38B50446FC
:102D600014B94FF0FF3038BD6A4604214FF4587053
:102D700002F00FF910B14FF0FF30F4E79DF80000BA
:102D800000069DF8011040EA01409DF8021040EA5B
:102D900001209DF80310084320600020E3E738B5C8
:102DA0000446200E8DF80000200C8DF80100200A4A
:102DB0008DF80200E0B28DF803006A4604214FF45A
:102DC000587002F0A9F838BD38B5044614B94FF070
:102DD000FF3038BD6A4604214FF4717002F0D9F813
:102DE00010B14FF0FF30F4E79DF8000000069DF8A9
:102DF000011040EA01409DF8021040EA01209DF8D0
:102E00000310084300EB8000800020600020E0E712
:102E100038B504461420B4FBF0F4200E8DF8000001
:102E2000200C8DF80100200A8DF80200E0B28DF828
:102E300003006A4604214FF4717002F06DF838BD4A
:102E400038B5044604B320208DF8000028208DF802
:102E5000010030208DF8020038208DF8030018E0C2
:102E600084050020000048430000804600004046E2
:102E7000000000460000C0450000804500004045BD
:102E8000000000450000C044A3220421684604F06D
:102E900091FD6A46042140F69E2002F03DF800F0C4
:102EA00077FC38BD38B5044664B1C0208DF8000009
:102EB000C2208DF80100C4208DF80200C6208DF8D4
:102EC000030004E08B220421684604F073FD6A4687
:102ED000042140F6982002F01FF800F059FC38BD9C
:102EE0003EB504466CB1FDA1D1E900208968CDE969
:102EF000002002916A4609214FF4976002F00CF815
:102F00003EBDF9A2D2E900109268CDE9010200911C
:102F10006A4609214FF4976001F0FEFFF0E73EB5E5
:102F2000044602208DF80000CA208DF80100E3203D
:102F30008DF8020009208DF803006A4604216820FC
:102F400001F0EAFFA3208DF8000004F0400048B132
:102F5000C0208DF80100C8208DF80200C2208DF835
:102F6000030006E0A3208DF801008DF802008DF823
:102F7000030004F4C07048B1C4208DF80400CC20D4
:102F80008DF80500C6208DF8060006E0A3208DF818
:102F900004008DF805008DF80600A3208DF80700C9
:102FA0008DF808008DF809006A460A2140F6A7202E
:102FB00001F0B2FF04F0030018B120208DF80000EA
:102FC00002E0D8208DF800006A46012140F6B620C4
:102FD00001F0A2FF04F0200018B10120FFF780FFEC
:102FE00002E00020FFF77CFF04F4C07008B304F493
:102FF000807060B1B2208DF800008B208DF8010048
:10300000B6208DF802009B208DF803000BE0B02065
:103010008DF8000080208DF80100B4208DF80200AA
:1030200090208DF803006A46042140F6A22001F0AA
:1030300073FF04F0010020B3F8208DF800006A4609
:1030400001214FF40B6001F067FFFA210720FFF721
:1030500019FD0720FFF7E4FD0120FFF704FE6420BF
:10306000FFF714FE4FF4FA70FFF723FEC821A148C2
:10307000FFF732FE2820FFF74BFE0A20FFF75BFE2A
:1030800008E0D8208DF800006A4601214FF40B605B
:1030900001F042FF04F0020018B1D9208DF80000C1
:1030A00002E0D8208DF800006A46012140F23D7010
:1030B00001F032FF04F0040018B10120FFF7F2FE26
:1030C00002E00020FFF7EEFE04F0100018B101202E
:1030D000FFF7B6FE02E00020FFF7B2FE44F0080062
:1030E0008549488100F054FB00208349887304F02F
:1030F000400018B10846807B801D887304F4C070BE
:1031000020B17D48807B801D7B49887304F01400CA
:1031100020B17948807B10307749887304F0030030
:1031200020B17548807B001D7349887300203EBD27
:103130000146714840890880002070472DE9F04120
:103140000446E07800F0C006E07800F03F056078C3
:1031500000F0010098B1EF102846E91705EB517116
:10316000C910A5EBC101491C01F0FF0862480068C5
:1031700020B16148414602683846904700BF6078F8
:1031800000F0080030B15C48406818B1B0115A4AEC
:10319000516888470020BDE8F08110B586B004462C
:1031A00056A207CA03AB07C357A207CA8DE8070098
:1031B000012C09D0022C0ED103AA0B2140F682204B
:1031C00001F0AAFE06B010BD6A460B2140F682202F
:1031D00001F0A2FEF6E74FF0FF30F3E72DE9F04FE4
:1031E0008DB00746884615469946DDE9166B0024E2
:1031F000002030804049887B5A4605A901F0D7F964
:1032000018B1601E0DB0BDE8F08F3B48807A00F029
:103210001400002861D09DF8140000069DF81510D8
:1032200040EA01409DF8161040EA01209DF8171071
:10323000084328609DF8180000069DF8191040EA20
:1032400001409DF81A1040EA01209DF81B10084328
:1032500068609DF81C0000069DF81D1040EA0140C2
:103260009DF81E1040EA01209DF81F100843A86039
:103270009DF8200000069DF8211040EA01409DF8CD
:10328000221040EA01209DF823100843E86004F171
:103290001000C4B2286800140190686800140290FD
:1032A000A86800140390E868001404900198404353
:1032B000029901FB0100039901FB0100049901FB44
:1032C000010ABAF1706F02DBBAF1885F22DD00F00B
:1032D0005FFA00203080401E94E721E0B8AAB38D49
:1032E000B4980D355D000000B8AAAAAAB088C3C57D
:1032F000C700000009E3CA0284050020D8B1B9F371
:103300008BA391B609B4D900DAB1B9F38BA391B606
:10331000DAB4DA00B6F9000040F48070308000BF03
:103320003448807A00F0400020B305A9601C085C96
:10333000095D40EA012000B2A8F8000005A9E01CE0
:10334000095C05AAA01C105C41EA002000B2A8F8A4
:10335000020005A9601D095C201D105C41EA0020E7
:1033600000B2A8F80400A01DC4B2B6F9000040F0F5
:10337000080030801F48408900F4C07008B305A9D8
:10338000601C085C095D40EA012000B2388005A994
:10339000E01C095C05AAA01C105C41EA002000B2F8
:1033A000788005A9601D095C201D105C41EA0020A1
:1033B00000B2B880A01DC4B2B6F9000040F07000A1
:1033C00030800C48807A00F0030018B105A9081974
:1033D000FFF7B4FE484600F048FD002012E7014622
:1033E0000448016000207047014602484160002007
:1033F000704700008405002038B50446F74890F86F
:103400002400C0B114B10220009001E0002000901F
:10341000F24A1268D17BF14A526810786B46012259
:10342000FFF7E7F810B14FF0FF3038BD9DF80010FE
:10343000EA48417423E0E948807A10B94FF0FF3040
:10344000F3E724B1E548407C08B10020EDE714B172
:103450000120009001E000200090E04A1268D17B3A
:10346000DE4A526810786B460122FFF7C2F810B1AD
:103470004FF0FF30D9E79DF80010D8484174002084
:10348000D3E738B500241FE0D4480068C07AA042D2
:1034900004D0D2480068407DA04200D112E0CF495C
:1034A000496808786B4601222146FEF7E1FF10B11A
:1034B0004FF0FF3038BD9DF800202146C8A004F031
:1034C00017F900BF601CC4B2C44840680079A0422C
:1034D000DADC0020EEE770B504460D46BF48006810
:1034E000C07AA04204D0BD480068407DA04202D10D
:1034F0004FF0FF3070BDB94840680079A04202DC4F
:103500004FF0FF30F6E7B549496808782B460122AD
:103510002146FEF7ADFFEDE738B50446AF4890F819
:103520002300A04201D1002038BD14B1302000900A
:1035300001E000200090A948807C20B19DF80000A7
:1035400040F002000090A54890F8220020B19DF8BC
:10355000000040F080000090A04A1268117D9F4A50
:10356000526810786B460122FFF743F810B14FF014
:10357000FF30D9E7994880F823400020D4E738B5D8
:10358000044604F0700010B10120009005E014B171
:103590000020009001E040200090904A1268917C49
:1035A0008E4A526810786B460122FFF722F820B14C
:1035B00000218A488172481E38BD9DF8000020F025
:1035C0004001864801730020009004F0400020B9BB
:1035D0009DF8000040F00400009004F0200020B9A5
:1035E0009DF8000040F00200009004F0100020B9A7
:1035F0009DF8000040F00100009004F0080020B9A0
:103600009DF8000040F038000090744A1268D17CA8
:10361000724A526810786B460122FEF7EAFF20B129
:1036200000216E488172481EC6E724B1082C02D0E2
:103630000020FFF771FF6948847200210175322074
:1036400002F0E2F90020B7E738B504466348807C11
:10365000A04201D1002038BD002C46D05F4A12683C
:1036600011795E4A526810786B460122FEF700FF1E
:1036700010B14FF0FF30EEE79DF8000020F0200081
:103680000090564A12681179544A526810786B4675
:103690000122FEF7AEFF10B14FF0FF30DBE7032051
:1036A00002F0B2F9022000904C4890F8220020B1BC
:1036B0009DF8000040F080000090484890F82300FA
:1036C00020B19DF8000040F030000090434A12689D
:1036D000117D424A526810786B460122FEF789FF3D
:1036E000002851D04FF0FF30B5E73C4A12681179FD
:1036F0003A4A526810786B460122FEF7B9FE10B1C3
:103700004FF0FF30A7E73548807A00F0010028B17C
:103710009DF8000040F02000009004E09DF80000BB
:1037200020F0200000902D4A126811792B4A52682F
:1037300010786B460122FEF75CFF10B14FF0FF30AE
:1037400089E7032002F060F9244890F8220010B1C4
:103750008020009001E000200090204890F8230095
:1037600020B19DF8000040F0300000901B4A126824
:10377000117D1A4A526810786B460122FEF739FF14
:1037800010B14FF0FF3066E714488474002062E700
:1037900008B51248807A10B94FF0FF3008BD0020FC
:1037A00000900E4A1268D17B0C4A526810786B4622
:1037B0000122FEF71EFF10B14FF0FF30EEE7074A7F
:1037C00012685179054A526810786B460122FEF75B
:1037D00010FF68B14FF0FF30E0E70000D00100209B
:1037E000252335783A20252335780D0A000000007E
:1037F000F84A12681179F74A526810786B4601222C
:10380000FEF7F7FE10B14FF0FF30C7E7F14890F830
:103810002400002853D00C200090EE4A1268117941
:10382000EC4A526810786B460122FEF7E2FE10B1B6
:103830004FF0FF30B2E7322002F0E6F8C0200090EF
:10384000E448807A00F0010020B19DF8000040F0CB
:1038500020000090DF4A12681179DE4A5268107821
:103860006B460122FEF7C5FE10B14FF0FF3095E721
:10387000D848407C10B10220009001E00020009068
:10388000D44A1268D17BD34A526810786B46012221
:10389000FEF7AFFE10B14FF0FF307FE70020009041
:1038A000CC4A12685179CB4A526810786B46012293
:1038B000FEF79FFE002855D04FF0FF306EE7042042
:1038C0000090C44A12681179C24A526810786B4657
:1038D0000122FEF78EFE10B14FF0FF305EE7BD48CB
:1038E000807C20B9BB48807A00F0010010B94020EC
:1038F000009001E060200090B64A12681179B54A44
:10390000526810786B460122FEF773FE10B14FF03B
:10391000FF3043E7322002F077F8AE48407C10B128
:103920000120009001E000200090AA4A1268D17B9B
:10393000A84A526810786B460122FEF75AFE10B171
:103940004FF0FF302AE7A34A12685179A14A526822
:103950001078A04B10330122FEF74BFE10B14FF050
:10396000FF301BE7002019E770B50446002624F05D
:103970000104984890F8240008B1002070BD9548D3
:10398000807A10B94FF0FF30F8E79248057C807AD2
:103990002040904908740846007CA04202D04FF0B5
:1039A000FF3600E0002614B98A48007D18B10120D6
:1039B000FFF722FD02E00020FFF71EFD3CB1FFF7FC
:1039C000E7FE20B1834805744FF0FF30D6E730465C
:1039D000D4E738B504467F48807A10B94FF0FF30FD
:1039E00038BDBC2C02DB0120009015E0622C02DB0C
:1039F0000220009010E02A2C02DB032000900BE054
:103A0000142C02DB0420009006E00A2C02DB0520C7
:103A1000009001E0062000906E48C07A9DF80010EA
:103A2000884201D10020DBE76A4A12689178694A2E
:103A3000526810786B460122FEF7DBFD10B14FF0A3
:103A4000FF30CDE79DF800106248C1720020C7E743
:103A500038B50446282C02DD4FF0FF3038BDDCB904
:103A60000020FFF759FD00208DF8000007208DF899
:103A70000100584A1268917C564A526810786B4689
:103A80000222FEF7B6FD10B14FF0FF30E6E700214D
:103A9000504801750020E1E70120FFF73DFD20209F
:103AA0008DF80000012C06D100208DF801000520C2
:103AB000FFF78FFF17E0052C06DC01208DF80100D1
:103AC0000520FFF786FF0EE0142C06DC02208DF89F
:103AD00001000A20FFF77DFF05E003208DF80100BB
:103AE0001420FFF776FF9DF80100072101EB8010FD
:103AF000C0B28DF80100374A1268917C354A52688D
:103B000010786B460222FEF774FD10B14FF0FF30C3
:103B1000A4E708212F48817200210173012101755A
:103B20000020FFF721FF002098E738B50446294818
:103B3000807A10B94FF0FF3038BD264890F8240045
:103B400010B14FF0FF30F7E72248007D50B134B19B
:103B5000282C04DCE0B2FFF77BFF0020ECE700201C
:103B6000FFF776FF042C01DA042404E0B4F57A7F31
:103B700001DD4FF47A744FF47A7090FBF4F0401E3C
:103B8000C0B20090134A12685178124A52681078F5
:103B90006B460122FEF72DFD10B14FF0FF30CBE751
:103BA0009DF80000401C4FF47A7191FBF0F081B257
:103BB0000848C1810146C9894810FFF70AFF002063
:103BC000BAE738B504460348807A28B94FF0FF3089
:103BD00038BD0000D0010020022C06D0042C07D0F4
:103BE000082C08D0102C0CD108E0002000900BE02D
:103BF0000820009008E01020009005E018200090B8
:103C000002E04FF0FF30E3E700BFF748407A9DF84D
:103C10000010B0EBE10F01D10020D9E7F24A1268A1
:103C2000D179F14A526810786B460122FEF7E1FC27
:103C300010B14FF0FF30CBE79DF80000C110EA480B
:103C400041720020C4E738B50446E748807A10B9CD
:103C50004FF0FF3038BDFA2C09D0B4F5FA7F09D007
:103C6000B4F57A7F09D0B4F5FA6F0CD108E00020E2
:103C700000900BE00820009008E01020009005E084
:103C80001820009002E04FF0FF30E3E700BFD64875
:103C9000007A9DF80010B0EBE10F01D10020D9E7C8
:103CA000D14A12689179D04A526810786B46012245
:103CB000FEF79FFC10B14FF0FF30CBE79DF80000FE
:103CC000C010C94908720020C4E71CB580208DF8D7
:103CD0000000C54A1268917CC34A526810786B464E
:103CE0000122FEF786FC10B14FF0FF301CBD6420AE
:103CF00001F08AFE00208DF80000BB4A1268917C1A
:103D0000B94A526810786B460122FEF772FC10B176
:103D10004FF0FF30EAE7B44A1268917DB24A526828
:103D200010786B460622FEF7A3FB10B14FF0FF3070
:103D3000DCE79DF80500C007400F9DF8031001F077
:103D4000010140EA41009DF8011001F0010140EA43
:103D5000010494B1012C03D10121A348C17431E0C5
:103D6000022C03D10021A048C1742BE021469FA062
:103D700003F0BEFC4FF0FF30B8E79B4A1268D178E1
:103D8000994A526810786B460122FEF771FB10B118
:103D90004FF0FF30AAE79DF8000000F00F042CB9A7
:103DA0009C4803F0A5FC4FF0FF309FE7042C06D1A0
:103DB00099A003F09DFC01218B48C17402E0002111
:103DC0008948C174FF2188488172FF2086490872A2
:103DD000FF2185484172C1724FF6FF71C181FF21F9
:103DE000017481740121017380F82210002180F890
:103DF00023104175017516300160416081601638ED
:103E000080F8241080F82510C1844FF4FA60FFF781
:103E10001AFF10B14FF0FF3068E70220FFF7D1FE24
:103E200010B14FF0FF3061E72A20FFF7D2FD10B14B
:103E30004FF0FF305AE73220FFF777FE10B14FF016
:103E4000FF3053E70020FFF78FFD10B14FF0FF3038
:103E50004CE70020FFF7F8FB10B14FF0FF3045E7CB
:103E60000020FFF78CFB002040E770477CB504463C
:103E70000D465D48807A00F0700010B94FF0FF30B9
:103E80007CBD594A1268117B574A526810786B46BC
:103E90000622FEF7EDFA10B14FF0FF30F0E79DF883
:103EA00001009DF8001040EA012000B220809DF83A
:103EB00003009DF8021040EA012000B260809DF8E6
:103EC00005009DF8041040EA012000B2A08015B161
:103ED0002846FFF7CAFF0020D2E77CB504460D460E
:103EE0004148807A00F0080010B94FF0FF307CBDE7
:103EF0003D4A1268517B3C4A526810786B46062254
:103F0000FEF7B6FA10B14FF0FF30F0E79DF8010070
:103F10009DF8001040EA012000B220809DF80300C7
:103F20009DF8021040EA012000B260809DF8050073
:103F30009DF8041040EA012000B2A08015B1284687
:103F4000FFF793FF0020D2E7F8B506460C46264857
:103F5000807A10B94FF0FF30F8BD234A1268917B88
:103F6000214A526810786B460222FEF781FA10B19E
:103F70004FF0FF30F0E79DF801009DF8001040EA97
:103F8000012005B214B12046FFF76FFF16484068C4
:103F9000B0F9080000EE100AF8EEC00A00EE105A60
:103FA000B8EEC00A70EE600A0F484068C08800EEA4
:103FB000100AB8EE400A80EE801A9FED1F0A31EE1B
:103FC000000ADFED1E0A20EE200ABDEEC00A86EDD3
:103FD000000A0020C0E710B588B004461CB94FF0B5
:103FE000FF3008B010BD2BE0D0010020556E737576
:103FF00070706F7274656420736F66747761726538
:104000002070726F64756374207265762025642E4B
:104010000A000000DCBA000848616C662073656E17
:104020007369746976697479207061727420666F3F
:10403000756E642E0A00000000000C4200008047EC
:10404000206830B9606820B9A06810B9002008B0B5
:1040500010BDF9494968087806AB03221146FEF7FE
:1040600007FA10B14FF0FF30F1E79DF81800082172
:1040700001EB201000F00F00ADF800009DF81900D2
:1040800001EB201000F00F00ADF802009DF81A00BF
:1040900001EB201000F00F00ADF804002068410093
:1040A000BDF90000403091FBF0F000B2ADF8100017
:1040B00060684100BDF90200403091FBF0F000B2B1
:1040C000ADF81200A0684100BDF90400403091FB3A
:1040D000F0F000B2ADF81400D7494968087806AB93
:1040E00006221146FEF7C4F910B14FF0FF30AEE7DB
:1040F0009DF819009DF8181040EA012000B2ADF8B3
:1041000008009DF81B009DF81A1040EA012000B23B
:10411000ADF80A009DF81D009DF81C1040EA012032
:1041200000B2ADF80C00BDF81000BDF8081008444E
:1041300000B2ADF81000BDF81200BDF80A10084436
:1041400000B2ADF81200BDF81400BDF80C10084420
:1041500000B2ADF81400BDF81000000A8DF8180088
:10416000BDF81000C0B28DF81900BDF81200000AA9
:104170008DF81A00BDF81200C0B28DF81B00BDF812
:104180001400000A8DF81C00BDF81400C0B28DF8B0
:104190001D00A9494968087806AB06221146FEF7BA
:1041A00028FA10B14FF0FF3051E700204FE70146E9
:1041B000A148007A30B1012807D0022809D003288D
:1041C0000FD10AE0FA2008800EE04FF4FA70088060
:1041D0000AE04FF47A70088006E04FF4FA60088035
:1041E00002E00020088000BF00BF002070470146A9
:1041F0009148407A30B1012807D0022808D003281E
:104200000CD108E0022008700BE00420087008E0E0
:104210000820087005E01020087002E04FF0FF3021
:10422000704700BF8448C07C18B108784006000E73
:1042300008700020F4E701467F48C07A082817D2AA
:10424000DFE800F01704070A0D101318BC200880DF
:1042500013E06220088010E02A2008800DE014207E
:1042600008800AE00A20088007E00520088004E0B2
:1042700000BF00BF0020088000BF00BF00207047C3
:1042800001466D4890F8240010B14FF0FF307047A0
:104290006948C08908800020F9E7014600200880AD
:1042A000401E704701464FF0FF307047014662489C
:1042B000007A30B1012809D002280CD0032814D18B
:1042C0000EE09FED5E0A81ED000A11E09FED5C0AB1
:1042D00081ED000A0CE09FED5B0A81ED000A07E02A
:1042E0009FED590A81ED000A02E04FF0FF30704760
:1042F00000BF0020FBE701464F48407A30B101285B
:1043000008D002280AD0032810D10BE04FF48040D7
:1043100008800EE041F69C7008800AE04FF480505F
:10432000088006E04FF40060088002E04FF0FF30A4
:10433000704700BF4048C07C10B10888401008801A
:104340000020F5E701463C48007C087000207047DB
:1043500001463948807A10B10120087001E0002040
:1043600008700020704738B504463348807A10B989
:104370004FF0FF3038BD304A1268117C2E4A526827
:1043800010786B460222FEF773F810B14FF0FF3041
:10439000F0E79DF801009DF8001040EA012000B20E
:1043A00020800020E6E72DE9FE4F0746884692462A
:1043B0001D46DDF830B0002600241F4890F8240088
:1043C00010B1601EBDE8FE8F002028701A48807A68
:1043D00010B94FF0FF30F5E71748007C10B94FF0E7
:1043E000FF30EFE71448007C00F0400008B1B01C3B
:1043F000C6B21148007C00F0200008B1B01CC6B263
:104400000D48007C00F0100008B1B01CC6B20A488C
:10441000007C00F0080008B1B01DC6B2064A126860
:10442000917A054A526810786B460222FEF720F80E
:1044300060B14FF0FF30C5E7D0010020000003431A
:104440000000834233330342333383419DF801003C
:104450009DF8001040EA0129B14501DA0020B1E7DA
:10446000FA4840684088B9EB600F17DDF74A1268D8
:10447000517CF64A526810786B460122FDF7F8FF2E
:1044800010B14FF0FF309DE79DF8000000F01000E4
:1044900020B1FFF77DF96FF0010093E75046FFF779
:1044A000E4FCEA4A1268D17AE84A526810786B460E
:1044B0003246FDF7DDFF10B14FF0FF3082E799FB88
:1044C000F6F0401E8BF8000000202870B4422AD07D
:1044D000DE48007C00F0080028B3601C1DF80000D6
:1044E0001DF8041040EA012000B2A8F80000E01C0A
:1044F0001DF80010A01C1DF8000041EA002000B2C9
:10450000A8F80200601D1DF80010201D1DF8000015
:1045100041EA002000B2A8F80400287840F0080022
:104520002870A01D84B2B44213D0C848007C00F0AB
:10453000400070B1601C1DF800001DF8041040EA36
:10454000012000B23880287840F040002870A01C7C
:1045500084B2B44213D0BD48007C00F0200070B19A
:10456000601C1DF800001DF8041040EA012000B294
:104570007880287840F020002870A01C84B2B442D3
:1045800013D0B248007C00F0100070B1601C1DF820
:1045900000001DF8041040EA012000B2B88028781D
:1045A00040F010002870A01C84B200200AE7F8B583
:1045B00004460F461646A54890F8240010B94FF05F
:1045C000FF30F8BDA148807A10B94FF0FF30F8E70E
:1045D0009E4A1268917A9D4A526810786B46022270
:1045E000FDF746FF10B14FF0FF30EAE79DF80100FC
:1045F0009DF8001040EA0125A54203DA0020307042
:10460000401EDEE7914840684088B5EB600F17DD3B
:104610008E4A1268517C8D4A526810786B4601228E
:10462000FDF726FF10B14FF0FF30CAE79DF80000FC
:1046300000F0100020B1FFF7ABF86FF00100C0E709
:10464000E2B2824B1B68D97A804B5B6818783B4694
:10465000FDF70EFF10B14FF0FF30B2E795FBF4F01D
:10466000401E30700020ACE70146784880F82210E8
:10467000002070477CB5054674494968087801AB4D
:1046800004220D21FDF7F4FE08B107207CBD9DF842
:104690000700C0F301109DF8041001F0E00140EAAA
:1046A000E1008DF800009DF80700C0F381009DF83F
:1046B000051001F0E00140EAE1008DF801009DF8ED
:1046C000070000F003009DF8061001F0E00140EA49
:1046D000E1008DF80200002427E01DF8040030B945
:1046E0009FED5B0A05EB840080ED000A1BE09FED67
:1046F000590A05EB840080ED000A0BE005EB84000D
:1047000090ED000ADFED540A20EE200A05EB84004C
:1047100080ED000A1DF80400401EC0B20DF8040030
:104720000028EBD100BF601CC4B2032CD5DB0020F5
:10473000ACE7F0B52DED028B83B006460F460025A1
:104740006846FFF797FF002447E056F8241057F813
:104750002420881A002801DB014600E0414200EED7
:10476000101AB8EEC00ADFED3D0A80EE208A6846D6
:1047700000EB840090ED000AB5EEC00AF1EE10FAED
:1047800018D0684600EB8400D0ED000A88EE200ABD
:10479000F7EE000A70EE608AB0EEE80A3048D0ED1D
:1047A000090AB4EEE00AF1EE10FA15DD0120A0408E
:1047B000054311E02A4890ED070AB4EEC80AF1EE6D
:1047C00010FA06DC90ED080AB4EEC80AF1EE10FA11
:1047D00002D20120A0400543641C032CB5DB28460F
:1047E00003B0BDEC028BF0BDF0B52DED048B81B0B4
:1047F00006460F4600251549496808786B4603228E
:104800000D21FDF735FE20B1072001B0BDEC048B72
:10481000F0BD9DF8000000F01F008DF800009DF82D
:10482000010000F01F008DF801009DF8020000F06B
:104830001F008DF80200002461E056F8241057F89C
:104840002420881A00280DDB01460CE0D00100204E
:10485000000000007B14AE3E1D5A843F00008047DC
:10486000D0B70008414200EE101AB8EEC00A5FED62
:10487000050A80EE208A1DF8040068B3FE4890ED1A
:10488000000AB8EE400ADFEDFD0A80EE801AF0EE75
:10489000418A05E09FEDFA0A28EE800AF0EE408A90
:1048A0001DF80400401EC0B20DF804000028F1D12C
:1048B00088EE280AF7EE000A30EE609AB0EEC90AD8
:1048C000ED48D0ED060AB4EEE00AF1EE10FA15DD7F
:1048D0000120A040054311E0E74890ED040AB4EE42
:1048E000C80AF1EE10FA06DC90ED050AB4EEC80A2B
:1048F000F1EE10FA02D20120A0400543641C032C03
:104900009BDB284681E72DE9F04F87B005460C4632
:10491000914601208DF8100000208DF81100D94A31
:104920001268917CD74A5268107804AB0222FDF7D6
:1049300060FE20B14FF0FF3007B0BDE8F08FC82017
:1049400001F062F800208DF81000CE4A1268D17B89
:10495000CC4A5268107804AB0122FDF74AFE10B130
:104960004FF0FF30E8E7C74A12685179C54A5268EC
:10497000107804AB0122FDF73CFE10B14FF0FF3080
:10498000DAE7C04A1268917CBE4A5268107804ABDC
:104990000122FDF72EFE10B14FF0FF30CCE7B94AEF
:1049A0001268D17DB74A5268107804AB0122FDF736
:1049B00020FE10B14FF0FF30BEE7B24A1268117905
:1049C000B04A5268107804AB0122FDF712FE10B114
:1049D0004FF0FF30B0E70C208DF81000A94A1268A4
:1049E0001179A84A5268107804AB0122FDF701FE44
:1049F00010B14FF0FF309FE70F2001F005F8A148FC
:104A0000806A407A8DF810009E4A126891789D4A1B
:104A10005268107804AB0122FDF7EBFD10B14FF0A6
:104A2000FF3089E79748806A007A8DF81000954A30
:104A300012685178934A5268107804AB0122FDF74E
:104A4000D8FD10B14FF0FF3076E7B9F1000F07D075
:104A50008C48806A807A40F0E0008DF8100004E015
:104A60008848806A807A8DF81000864A12689179A9
:104A7000844A5268107804AB0122FDF7BAFD10B1E8
:104A80004FF0FF3058E7B9F1000F07D07D48806A3A
:104A9000C07A40F0E0008DF8100003E07648C07A5C
:104AA0008DF81000774A1268D179764A52681078EA
:104AB00004AB0122FDF79DFD10B14FF0FF303BE745
:104AC000B9F1000F02D0C82000F09EFF40208DF801
:104AD00010006C4A126811796A4A5268107804AB67
:104AE0000122FDF786FD10B14FF0FF3024E778205A
:104AF0008DF81000634A12685179624A5268107842
:104B000004AB0122FDF775FD10B14FF0FF3013E744
:104B10005949888900F078FF00208DF81000594A23
:104B200012685179574A5268107804AB0122FDF798
:104B300060FD10B14FF0FF30FEE6524A1268917AE4
:104B4000504A5268107804AB0222FDF791FC10B174
:104B50004FF0FF30F0E69DF811009DF8101040EA8C
:104B6000012B0C209BFBF0F0C6B20020A86068600F
:104B70002860A06060602060824665E0414A12685B
:104B8000D17A404A5268107804AB0C22FDF770FCD1
:104B900010B14FF0FF30CFE69DF811009DF81010D6
:104BA00040EA012000B2ADF808009DF813009DF81E
:104BB000121040EA012000B2ADF80A009DF815007D
:104BC0009DF8141040EA012000B2ADF80C00BDF9C8
:104BD0000810206808442060BDF90A106068084485
:104BE0006060BDF90C10A0680844A0609DF8170033
:104BF0009DF8161040EA012000B2ADF800009DF8C3
:104C000019009DF8181040EA012000B2ADF802002A
:104C10009DF81B009DF81A1040EA012000B2ADF883
:104C20000400BDF90010286808442860BDF902108E
:104C3000686808446860BDF90410A8680844A86062
:104C40000AF1010000F0FF0AB24597DB0A48D0F8EC
:104C500000C02868C117090441EA104107046246F0
:104C60000023384602F01FFD32460023CDE9020141
:104C700002F019FD286007E0D0B7000800B04C45ED
:104C800054E3853FD0010020F848D0F800C06868A0
:104C9000C117090441EA104107046246002338465F
:104CA00002F001FD32460023CDE9020102F0FBFCD7
:104CB0006860EE48D0F800C0A868C117090441EA4E
:104CC0001041070462460023384602F0ECFC3246ED
:104CD0000023CDE9020102F0E6FCA860E348D0F829
:104CE00004C02168C817000440EA11480F04624656
:104CF00000233846414602F0D6FC32460023CDE977
:104D0000020102F0D0FC2060D848D0F804C06068EE
:104D1000C117090441EA10410704624600233846DE
:104D200002F0C1FC32460023CDE9020102F0BBFCD7
:104D30006060CE48D0F804C0A068C117090441EAF9
:104D40001041070462460023384602F0ACFC3246AC
:104D50000023CDE9020102F0A6FCA060A0680028B3
:104D600004DDA068A0F58030A06003E0A06800F535
:104D70008030A0600020DFE538B50446BC4890F8DC
:104D80002400A04201D1002038BD24B3B84890F8D7
:104D9000250010B94FF0FF30F6E70020FEF72CFB9E
:104DA0000020FEF751FCB249C88CFEF7BEFE002081
:104DB0000090AF49496808786B4601222321FDF72E
:104DC00018FC0121AA4880F824100120FEF714FBEA
:104DD000FEF7DEFC13E00020FEF70EFBA448007C8B
:104DE0000090A349496808786B4601222321FDF70A
:104DF00000FC00219E4880F82410FEF7C9FC00202A
:104E0000C2E72DE9F04F8DB083460F4602200C908B
:104E1000974890F8240020B10020FFF7ADFF01264D
:104E200000E0002603A8FFF7C2F905A8FFF7DFF9A5
:104E300001A8FFF700FA02A8FFF722FA8C4890F8C1
:104E40000AA004A8FFF77EFA002407E000223946F2
:104E50005846FFF758FD00B902E0641C022CF5DB50
:104E600000BF022C01D1002528E0002407E0012228
:104E700006A909A8FFF747FD00B902E0641C022C4F
:104E8000F5DB00BF022C01D1002517E006A938464A
:104E9000FFF74FFC00F0FF0809A95846FFF7A4FCF4
:104EA00000F0FF090025B9F1000F01D145F001051F
:104EB000B8F1000F01D145F0020500BFFF206C4999
:104EC0000872FF216A484172C1724FF6FF71C181B9
:104ED000FF218172017401210173BDF80C00FEF7FE
:104EE000B2FE9DF81400FEF76CFEBDF80400FEF75C
:104EF00070FDBDF80800FEF718FE5046FEF73FFBB8
:104F00009DF81000FEF730FD16B10120FFF734FFC9
:104F100028460DB0BDE8F08FF8B504460D4616469C
:104F200016B94FF0FF30F8BD5148807A10B94FF0F4
:104F3000FF30F8E720128DF80000E0B28DF8010094
:104F40009DF8010028444A4949684989884202DDA0
:104F50004FF0FF30E7E7464A1268117E444A526834
:104F600010786B460222FDF744FB10B14FF0FF3082
:104F7000D9E7EAB23E4B1B68597D3D4B5B68187818
:104F80003346FDF736FB10B14FF0FF30CBE7002082
:104F9000C9E7F8B504460D46164616B94FF0FF307E
:104FA000F8BD3348807A10B94FF0FF30F8E720128F
:104FB0008DF80000E0B28DF801009DF80100284452
:104FC0002B4949684989884202DD4FF0FF30E7E705
:104FD000274A1268117E264A526810786B460222D0
:104FE000FDF707FB10B14FF0FF30D9E7EAB2204BD5
:104FF0001B68597D1E4B5B6818783346FDF738FAFD
:1050000010B14FF0FF30CBE70020C9E72DE9F043A6
:1050100085B005460E4690469946154890F82500FD
:1050200020B14FF0FF3005B0BDE8F08316B94FF066
:10503000FF30F8E7002428E0281B102801DD1020AD
:1050400000E0281B87B2321939462046FFF764FF7B
:1050500010B14FF0FF30E6E701AA39462046FFF7CE
:1050600098FF38B14FF0FF30DDE70000D0B70008FF
:10507000D001002030193A4601A902F06FFC10B1AE
:105080006FF00100CFE7E01984B2AC42D4DB4FEA05
:1050900028208DF8000008F0FF008DF80100F94A83
:1050A0001268917EF74A526810786B460222FDF72B
:1050B000A0FA10B14FF0FF30B5E70121F14880F8B8
:1050C0002510A0F826900020ADE70146ED4890F8A5
:1050D00024000870002070474FF0FF3070470246F0
:1050E0004FF0FF30704701464FF0FF307047F8B582
:1050F00005460F461446002C70D0B5F5FF5F01DD64
:10510000FF2605E0202D01DA012601E0C5F3471650
:1051100007B90127282C02DD4FF0FF30F8BDD94830
:10512000407D28BBD74890F8240038B10020FFF715
:1051300023FE0121D34880F8201003E00021D1484C
:1051400080F82010CF481630FFF731F8CD481830DE
:10515000FFF74DF8CB481A30FFF76DF8C9481C30FF
:10516000FFF78EF8C748817A81771F30FFF7EAF89A
:105170000020FEF741F90020FEF76AFC00208DF8C0
:105180000000C04A12689178BE4A526810786B4697
:105190000122FDF72EFA10B14FF0FF30BEE740209C
:1051A0008DF80000B74A1268D17BB64A5268107871
:1051B0006B460122FDF71DFA00B165E08DF8006035
:1051C0008DF80170AF4A1268117AAE4A52681078B1
:1051D0006B460222FDF70DFA08B155E047E00520C5
:1051E00000F012FCA748407A072101EBC000C0B2D2
:1051F0008DF80000A34A1268D179A24A526810784B
:105200006B460122FDF7F5F900B13DE020208DF855
:105210000000012C03D100208DF801000EE0052CC8
:1052200003DC01208DF8010008E0142C03DC0220CF
:105230008DF8010002E003208DF801009DF80100C7
:10524000072101EB8010C0B28DF801008D4A126871
:10525000917C8C4A526810786B460222FDF7C9F99E
:1052600000B111E0012187484175002056E7854AC9
:105270001632002103E0505C00B105E0491C0C2906
:10528000F9D34FF0FF3049E7FF207E490872FF2134
:105290007C484172C1724FF6FF71C181FF2181725A
:1052A0000174012101730146887FFEF768F9754991
:1052B000C88AFEF7C8FC7349087EFEF782FC714974
:1052C000488BFEF786FB6F49888BFEF72EFC6D49F5
:1052D000C87FFEF749FB6B4890F8200010B1012011
:1052E000FFF74AFD002167484175002016E710B519
:1052F00088B002A905A8FFF784FD0446032C41D11C
:1053000001A8FEF7D3FF9DED050AB8EEC00ADDED5A
:10531000010A20EE200ABDEEC00A8DED050A9DEDC2
:10532000060AB8EEC00ADDED010A20EE200ABDEE45
:10533000C00A8DED060A9DED070AB8EEC00ADDED44
:10534000010A20EE200ABDEEC00A8DED070A05A86D
:10535000FDF725FA6846FEF7CEFFBDF8001002986B
:1053600048430290BDF80010039848430390BDF8ED
:10537000001004984843049002A8FDF7A3FA002007
:1053800008B010BD0120FBE7014691F90020002A7A
:1053900001DD00201EE091F90020002A01DA04203E
:1053A00018E091F90120002A01DD012012E091F9B5
:1053B0000120002A01DA05200CE091F90220002AE0
:1053C00001DD022006E091F90220002A01DA062020
:1053D00000E00720704710B504462046FFF7D4FFD1
:1053E0000346E01CFFF7D0FF43EAC00083B2A01DD4
:1053F000FFF7CAFF43EA801083B2184610BD70B5AC
:10540000002400F059F9FEF760FC002845D178200F
:10541000FEF7B5F8C4B20CB1012070BD7820FEF7DC
:10542000A3FAC4B20CB10220F7E7C820FEF77DFB57
:10543000C4B20CB10320F0E7FDF716F9C4B20CB109
:105440000420EAE71048FFF7C6FF0546FDF716F906
:10545000C4B20CB10520E0E740F27310FDF75FFD28
:10546000C4B20CB10620D8E7C820FDF7C1FAC4B217
:105470000CB10720D1E7FFF73AFF044634B108200A
:10548000CBE70000D0010020FC0100200120FFF745
:1054900073FCC4B20CB10920BFE70020BDE770B5B2
:1054A0002DED0C8B8EB004460D461646B7EE000A65
:1054B000F0EE409A9FED7C0AB0EE408A9FED7A0AAA
:1054C000F0EE408A9FED780AB0EE409A07A808A94E
:1054D0000DAB03AACDE9001009A90BA8FDF77EFECC
:1054E00020B101200EB0BDEC0C8B70BDBDF82000CA
:1054F00000F4807000287CD09DED030AB8EEC00A4D
:10550000DFED6A0A80EE201AF0EE419A9DED040A62
:10551000B8EEC00ADFED650A80EE201AB0EE418ACF
:105520009DED050AB8EEC00ADFED600A80EE201A94
:10553000F0EE418A9DED060AB8EEC00ADFED5B0A87
:1055400080EE201AB0EE419AB8EE000A28EE000A6A
:1055500020EE090AF0EE000A69EEA00A00EEA80AA1
:1055600010EE101A084605F0A7FA41EC1C0BB0EE3D
:105570004C0AF0EE6C0A03F0C7FAB0EE40BAF0EE57
:1055800060BA9FED4B0B53EC102B51EC1B0B04F04E
:105590009DFF41EC1A0B04F05BFC2060B8EE000AA2
:1055A00028EE000A20EE080AF0EE000A68EEA00AD3
:1055B00000EEE80AF7EE000A30EE200A10EE101AAC
:1055C000084605F079FA41EC1C0BB0EE000A28EE13
:1055D000800A20EE090AF0EE000A69EEA00A00EE49
:1055E000880A10EE101A084605F066FA41EC1D0B09
:1055F00000E054E0B0EE4C1AF0EE6C1AB0EE4D0A3A
:10560000F0EE6D0A03F0A8FDB0EE40BAF0EE60BA1D
:105610009FED270B53EC102B51EC1B0B04F056FFA6
:1056200041EC1A0B04F014FC286029EEA90A08EEDC
:10563000080A08EEE80A09EE490A10EE101A0846B0
:1056400005F03AFA41EC1C0B28EE280A09EE890A0B
:10565000F0EE000A20EE200A10EE101A084605F0BF
:105660002BFA41EC1D0BB0EE4C1AF0EE6C1AB0EEBA
:105670004D0AF0EE6D0A03F06FFDB0EE40BAF0EEA9
:1056800060BA9FED0B0B53EC102B51EC1B0B04F08D
:105690001DFF41EC1A0B04F0DBFB306001E002203F
:1056A00020E700201EE70000000000000000804E00
:1056B0006666666666A64C401CB50121082001F0AE
:1056C0009DFE1820009001208DF8040000208DF828
:1056D000060003208DF8050001208DF807006946BB
:1056E000864800F071FB0120854908608549C1F8B2
:1056F00090021CBD10B58148006820F440707F49BD
:1057000008600846006840F48070086001207C4909
:10571000091D08607B49C1F88C02042000F02CF9B7
:1057200000207749091D0860042000F025F90020B9
:105730007449C1F88C0210BD10B57048006820F49F
:1057400040706E4908600846006840F48070086048
:1057500000206B4908606B49C1F89002042000F0FA
:105760000BF90120664908606649C1F890020420DF
:1057700000F002F910BD10B500246048006820F464
:1057800040705E49086008460068086001205C4976
:10579000091D086000F0F0F801205A49C1F88C0298
:1057A00000F0EAF807E0601CC4B2FA2C03DDFFF752
:1057B000C3FF012010BD52487C3800680028F2D198
:1057C0004F49086000BFF5E710B500204C4908605C
:1057D0004A48006820F4407048490860084600685C
:1057E00040F48070086000204649C1F89002012012
:1057F00000F0C2F801204249086000F0BDF8002026
:105800004049C1F88C0210BD10B500203C49086029
:105810003A48006820F4407038490860084600683B
:1058200040F48070086001203649C1F8900200F011
:10583000A3F801203249086000F09EF800203149A9
:10584000C1F88C0210BD70B504462C48006820F4E5
:1058500040702A4908600846006840F4807008607B
:10586000002027490860002516E0E0092449091DA9
:1058700008606006040E012000F07EF80120214936
:10588000C1F88C0200F078F800201D490860012062
:1058900000F072F8681CC5B2082DE6DB70BD70B56B
:1058A000054600241548006820F44070134908603C
:1058B000084600680860002616E0002010490860CD
:1058C000012000F059F801200E49C1F88C02600651
:1058D000040E0B487C38006808B1601CC4B201207B
:1058E00000F04AF8701CC6B2082EE6DB15B9FFF7C7
:1058F0008BFF01E0FFF768FF204670BD000C0240FF
:105900008C824142008041421CB50121042001F0FB
:1059100075FD2020009001208DF8040000208DF8F6
:10592000060003208DF8050001208DF80700694668
:10593000034800F049FA2021014800F0C1FA1CBDDB
:105940000008024010B504466FF0040000F098F91A
:10595000E11704EB5171C1F3C701394A11701046C8
:10596000007800EB4001C1EBC0104FF6FF7101EA77
:10597000C0003449088010BD0146314A12784A43BC
:105980004FF0E0235A6100229A611A46126942F0F0
:1059900001021A6100BF4FF0E022106900F001021D
:1059A0001AB100F48032002AF5D04FF0E0221269DB
:1059B00022F001024FF0E0231A6100229A61704741
:1059C0000146204A12884A434FF0E0235A610022E0
:1059D0009A611A46126942F001021A6100BF4FF043
:1059E000E022106900F001021AB100F48032002AAE
:1059F000F5D04FF0E022126922F001024FF0E023CF
:105A00001A6100229A61704770B504464FF407701E
:105A100094FBF0F0C6B24FF4077094FBF0F100FB7A
:105A2000114085B205E04FF40770FFF7C9FF701E03
:105A3000C6B2002EF7D115B12846FFF7C1FF70BDE1
:105A40000602002008020020014600BF704700BF88
:105A50004E4A128802F04002002AF9D0C2B24B4BE3
:105A60009A80704710B588B004460121084601F0BD
:105A7000C5FC0121102001F01BFD0722092144482B
:105A800000F02DFA07220A21414800F028FA4FF4CD
:105A9000C060069002208DF81C008DF81D000020CB
:105AA0008DF81E0001208DF81F0006A9384800F06F
:105AB0008BF902940020ADF80C00ADF80E00ADF8A3
:105AC0001000ADF814000C20ADF8120002A92F4808
:105AD00000F0A5FA01212D4800F029FB40212B48B8
